:020000040800F2
:1000000000200020A9260008852600088726000871
:1000100000000000000000000000000000000000E0
:100020000000000000000000000000008926000819
:1000300000000000000000008B2600088D2600084C
:10004000F926000800000000F9260008F92600083B
:10005000F9260008F9260008F9260008F926000804
:1000600000000000F9260008F9260008F92600081B
:10007000F9260008F9260008F9260008000000000B
:10008000F926000800000000000000009526000886
:1000900000000000F9260008F9260008F9260008EB
:1000A000F9260008F9260008F9260008F9260008B4
:0800B000F92600080000000021
:1000B80010B5064C2378002B07D1054B002B02D036
:1000C800044800E000BF0123237010BD1000002089
:1000D80000000000B0470008044B10B5002B03D007
:1000E8000349044800E000BF10BDC04600000000FE
:1000F80014000020B047000802B4714649084900BE
:10010800095C49008E4402BC7047C046002243087F
:100118008B4274D303098B425FD3030A8B4244D3C7
:10012800030B8B4228D3030C8B420DD3FF22090209
:1001380012BA030C8B4202D31212090265D0030BC8
:100148008B4219D300E0090AC30B8B4201D3CB03BE
:10015800C01A5241830B8B4201D38B03C01A524100
:10016800430B8B4201D34B03C01A5241030B8B4202
:1001780001D30B03C01A5241C30A8B4201D3CB02ED
:10018800C01A5241830A8B4201D38B02C01A5241D2
:10019800430A8B4201D34B02C01A5241030A8B42D5
:1001A80001D30B02C01A5241CDD2C3098B4201D3ED
:1001B800CB01C01A524183098B4201D38B01C01A6B
:1001C800524143098B4201D34B01C01A52410309E2
:1001D8008B4201D30B01C01A5241C3088B4201D391
:1001E800CB00C01A524183088B4201D38B00C01A3E
:1001F800524143088B4201D34B00C01A5241411A65
:1002080000D20146524110467047FFE701B5002071
:1002180000F0F0F802BDC0460029F7D076E7704735
:1002280003460B437FD4002243088B4274D303094F
:100238008B425FD3030A8B4244D3030B8B4228D3F0
:10024800030C8B420DD3FF22090212BA030C8B4216
:1002580002D31212090265D0030B8B4219D300E0B6
:10026800090AC30B8B4201D3CB03C01A5241830B3B
:100278008B4201D38B03C01A5241430B8B4201D3EB
:100288004B03C01A5241030B8B4201D30B03C01A14
:100298005241C30A8B4201D3CB02C01A5241830A8E
:1002A8008B4201D38B02C01A5241430A8B4201D3BD
:1002B8004B02C01A5241030A8B4201D30B02C01AE7
:1002C8005241CDD2C3098B4201D3CB01C01A52414E
:1002D80083098B4201D38B01C01A524143098B42D7
:1002E80001D34B01C01A524103098B4201D30B01C0
:1002F800C01A5241C3088B4201D3CB00C01A5241E5
:1003080083088B4201D38B00C01A524143088B42A9
:1003180001D34B00C01A5241411A00D20146524142
:10032800104670475DE0CA0F00D04942031000D361
:100338004042534000229C4603098B422DD3030AB6
:100348008B4212D3FC22890112BA030A8B420CD3C6
:10035800890192118B4208D3890192118B4204D3EF
:1003680089013AD0921100E08909C3098B4201D36F
:10037800CB01C01A524183098B4201D38B01C01AA9
:10038800524143098B4201D34B01C01A5241030920
:100398008B4201D30B01C01A5241C3088B4201D3CF
:1003A800CB00C01A524183088B4201D38B00C01A7C
:1003B8005241D9D243088B4201D34B00C01A524153
:1003C800411A00D20146634652415B10104601D3E0
:1003D8004042002B00D54942704763465B1000D36A
:1003E800404201B5002000F005F802BD0029F8D010
:1003F80016E770477047C04670B500220C4B0400E2
:100408000D0000F00FFF002804D12000290000F0A3
:1004180075FE70BD064B00222000290000F0D2FABC
:1004280000F06CFE80231B069C466044F1E7C04642
:100438000000E041F0B55746DE464E464546E0B579
:100448001F000B031B0B16009A46CA0F4B00040033
:10045800934687B05B0D00D1D5E0BB4A934200D1EB
:10046800F8E05146420FC9000A43802109041143AC
:10047800C2009146B54A8A469D18002398460293C1
:100488003C037B00FA0F3000240B5B0D009200D177
:1004980096E0AD4A934231D0720FE40022438024A3
:1004A80024041443A94AF000944663445B195A1C77
:1004B8000192424600260A2A42DC5A4600994A40DE
:1004C80093464246022A32DC013A012A00D949E120
:1004D800022E00D1CAE0012E3DD1002300240022C3
:1004E80010005A461B052343D2071343190007B0CF
:1004F800F0BCBB46B246A946A046F0BD924B264387
:10050800EB18002E00D1BBE00322414611435A46A6
:10051800884600994A40802109018C462900614497
:10052800019141460A2900DD33E2934603264246FB
:1005380001279740A6213A00C9000A400F4231D04E
:10054800029E022E00D135E2032E00D1D2E154469C
:100558004846012EC1D0019A7D4B94466344002B36
:1005680000DCC0E0420709D00F220240042A05D06F
:10057800021D82428041404224181000E20106D543
:10058800744B019A1C4080239446DB006344724AF2
:1005980093426BDC6207C00864025B050243240BCC
:1005A8005B0D9DE7902189000F4263D188223A4272
:1005B80000D1D7E0009BA2469B4681460296BFE742
:1005C8002300334300D17FE0002C00D1ADE12000AF
:1005D80000F032FE020003000B3A1D201900821AB7
:1005E80030000839D0408C400443300088405B4AD2
:1005F800EB1A944663445A1C0192424600260A2A82
:1006080000DC5AE79CE753460343994654D05346C7
:10061800002B00D177E1504600F00EFE0B235B4221
:100628009C460200844411005046083988401D2326
:10063800804660461B1A2000D8400300404603430A
:100648009A4623008B4099460023444D9846AD1A9C
:10065800029315E752460243914626D100221D0017
:100668000223924608329046029309E700240022AA
:10067800354B35E7002380249B462403324B2FE774
:100688000222414611438022120194462A00624404
:10069800884601920A2900DD52E75A46002000994F
:1006A80004004A40934602260BE70C221D00032350
:1006B800814690460293E3E600239A46043398461F
:1006C800033B00250293DBE6424601331A432B0025
:1006D80090465A1C019242460024002001260A2A0C
:1006E80000DCEAE62CE70122D21A382A00DDF4E61B
:1006F8001F2A00DC2AE11F214942CB1A2100D940D8
:100708000B00202A05D0164A019D94466544AC404A
:100718002043421E9041184307231900002401403A
:1007280003420CD00F230340042B00D140E1031DEA
:100738008342A4411800644261076402240BC20882
:1007480000230A43CCE6C046FF07000001FCFFFF78
:10075800FF030000FFFFFFFEFE0700000DFCFFFF88
:100768003E04000049464A460904090C0D00160CCF
:10077800020C0004000C4543AC4605007543A8462E
:1007880015000F007543009202952A00009D6F43E3
:1007980065462D0CA94647444F44B84505D9150070
:1007A800802252029046454402953D0C03956546C9
:1007B8002D043F042D0CAC463D0065440495250CE2
:1007C8002404240CAC4625007543A84665460F0052
:1007D8006943414489466743390C49446E43884517
:1007E80003D980225202904646440D0CA846350093
:1007F80045440595039D3F04A8463F0C0904C919C3
:1008080088444546039555462E04360C2F0C350072
:100818004543784381463800A8462D0CAA46009ADD
:10082800504372434A445244914503D980256D028E
:10083800A9464844150CA94645462D042D0CA84642
:1008480065467D43120448449044A94632006546F3
:1008580062436E437C43170C3619BF19BC4203D957
:1008680080246402A446E144029C039EA446059D9C
:1008780066448E428941AC4612043C04120CA2180C
:100888006244494254184644A4464645A441824617
:100898006442A046AA4292418C458941E244D04430
:1008A800494252420A43A045A441824589416442D3
:1008B80049420C4341463F0CD2191219CC0D0499F8
:1008C80070020843411E884141464A44F60D5202CF
:1008D8003043490214430843D20135D50122430865
:1008E80002401343E0071843640834E6009BA2461D
:1008F8009B4681468024534624031C4324034A46CE
:100908002E4B240BECE500F097FC15239C46844401
:100918000200634620321C2B00DC84E60023994643
:100928002300083883409A468EE600F085FC0200D2
:100938000300153220331C2A00DC4EE60200340086
:10094800083A0020944052E6019304E61C4B21002B
:100958009C460300019DD3406544A9401943030008
:10096800AB40581E834119430800D4404B0709D0B7
:100978000F230B40042B05D00B1D8B4280414042B6
:1009880024181800230200D4D6E6012300240022EC
:10099800A6E50F29AAD1802352461B031A42A9D0E3
:1009A8001C42A7D11C43009B02009B46034B97E5C2
:1009B8000024C1E60024014B220091E5FF07000056
:1009C8001E040000F0B54E464546DE465746E0B5E3
:1009D80085B0009001910C034F00CE0F610A009C76
:1009E800B046640F0C4300997F0DC80011001A002F
:1009F8001B039C460091019251004B0D9946019BA7
:100A0800009DD90F63466A0F5B0A1343EA009446B8
:100A18009346C14A03900293914500D1CDE0012548
:100A280069404D467D1BAA468E4200D180E0002DCC
:100A380000DC35E34946002900D1DFE0974200D1C8
:100A480094E152460125382A19DC8022029B1204BF
:100A58001343029352461F2A00DDE3E15346202246
:100A68006146029DD21A9540D9400D436146914096
:100A78000A00511E8A411543029ADA40A41A451BFE
:100A8800A84280414042241A230200D43DE1640276
:100A9800640A002C00D147E1200000F0CDFB0300E0
:100AA800083B20212800CA1AD0409C4002009D40E3
:100AB80022439F4200DD77E1D81B0130091A2C0040
:100AC8008D40C4406B1E9D411300C2408B4025439E
:100AD800002714001D436B0709D00F232B40042B5C
:100AE80005D02B1DAB42AD416D4264191D00230298
:100AF80000D440E1884A0137974200D101E101263C
:100B080043468649ED0821404A072A437C054D02A1
:100B18002D0B640D1E4024052C43F60734431000AA
:100B2800210005B0F0BCBB46B246A946A046F0BDC0
:100B3800002D00DCD0E24946002900D0D4E061460F
:100B4800029B194300D12BE1691E012D00D1D9E187
:100B5800954200D10AE10125382917DC8A46534617
:100B68001F2B00DDE7E12022D21A029B6146934049
:100B78001D005346D940634693401A000D43511E49
:100B88008A4153461543029ADA40A4182D18854223
:100B9800804140422418230200D4B6E05E4B01375E
:100BA8009F4200D1ADE001215C4B6A081C402940FE
:100BB8000A43E507154364088DE7594A029B9246A4
:100BC8006246BA441A432CD08E422ED05246002A8E
:100BD80060D0002F00D1DBE063460E00029CD808ED
:100BE80062070243E4081300234300D154E280253E
:100BF8002D0325432D03484C2D0B8CE76146029BA2
:100C0800194300D1CCE029000139012D00D188E138
:100C1800954200D1AAE00125382900DD2FE78A4650
:100C280018E7012251408E42D0D15346002B00D103
:100C3800BEE0002F00D038E1CA462200024300D1AE
:100C4800E2E15346591E012B00D10DE2324A92458A
:100C580000D1D2E10127382913DC1F2900DDEEE19C
:100C68002022029B521A250007009A46CC40904049
:100C78009540CF40A244421E904153462F4307431C
:100C880002933D00654465459241029B52424F469E
:100C9800D41880E7234A7D1C154200D0AAE062469A
:100CA8002500029B05431A43002F00D0F5E0002DD4
:100CB80000D16BE1002A00D152E16346C51A029BBC
:100CC800E21AA8429B415B42D31A1A0200D4D5E12A
:100CD80063461D1AAC4592410126029B52421C1BD9
:100CE8008846A41A0E40F6E697423FD052460125A0
:100CF800382A00DD4AE78022029B1204134302933C
:100D08002DE73C000025002205E707232B40002B98
:100D180000D0E2E66BE0C046FF070000FFFF7FFF60
:100D280001F8FFFFFE070000280000F085FA030025
:100D380018331F2B00DCB4E62A00083882409F4293
:100D480000DDB9E0DB1B581C1F2800DCA0E1150002
:100D58001F3BDD40202805D040231B1A9A40531E14
:100D68009A411543072300272B40D0E7C0086207A4
:100D78000243E40837E7EA0863071A43D34BE40859
:100D88009F4200D12FE72403250B7C05640DC2E6A2
:100D9800CA462200024358D163460E00029C0393C0
:100DA800039B5746DA08E7E7C94CFF1A144092E656
:100DB800C84D7A1C2A4200D084E022000243002F4A
:100DC80000D0EFE0002A00D1E5E0624602990A432C
:100DD80000D1C5E06346C5188C468542804164440D
:100DE80040422418230202D5B94B01371C40BA46A9
:100DF8000395D5E76246851AA84292415242914628
:100E0800029BE31A1A004B46D21A130091461A02A3
:100E18006CD44A464C462A4300D03AE600260024C1
:100E2800002578E6029953460D00203AD540202B3C
:100E380006D04022D21A0B00934062461A439346CA
:100E48005B465A1E93411D4319E653465A1E012B11
:100E580000D1C6E09D4EB24500D1BDE688460E00E1
:100E68000125382A10DC1F2A7FDC20212500891A59
:100E7800070088408D40D740D440411E8841029BDE
:100E88003D431B1B054302936246551BAC459241EB
:100E9800029B52424F469C1AF6E5002D00D0B7E05F
:100EA800002A00D1F0E001260E4063460298D908D6
:100EB80042070A43C40896E6854CFF1A14406207A5
:100EC800E40860E781498A4200D1C9E06346C11855
:100ED80081428041029B4042E3181B18DD075C08F1
:100EE800072349080D4317002B4010E763461D1AD6
:100EF800AC4592410126029B52421C1B8846A41A0B
:100F08000E40C6E56346C518029B854280419C4653
:100F18004042644424180127230200D4F5E602273E
:100F280041E66346C51AA8428041029B4042E41A42
:100F38000127241AA8E5029D52462B00203AD340E7
:100F480019005346202B06D04022D21A2B0093407A
:100F580062461A4393465D466B1E9D410D4315E656
:100F68006207C0080243E4080DE711002700203992
:100F7800CF40202A05D040218A1A944025000543F5
:100F88000395039D6A1E95413D437DE7002A00D1E4
:100F980044E701260E406346D908029B5A070A43D4
:100FA800DC08F0E6002A28D06246029FC0083A43CF
:100FB80000D1DCE6620710438022E40812031442E1
:100FC80009D0FD08154206D1634601262C00D80831
:100FD8007B0718430E40420FC000C0085207024367
:100FE80001E663461D1AAC459241029B52421C1B06
:100FF8000E0088460127A41A46E56346D908029BD5
:101008005A070A43DC08EEE56346029C0393C7E6E9
:10101800C008002A00D1AAE6620710438022E4082B
:1010280012031442D7D0029FFD081542D3D163465C
:101038000126D8087B072C0018430E40CBE70A008E
:101048002700203AD740202905D04022521A944040
:10105800250005430395039D6A1E95412F4310E61D
:1010680014000025002256E5029B6044994660451D
:1010780092414C4452420500A4184CE71A001C0047
:101088002A4300D0B3E6C9E6802400262403AEE54F
:1010980020210025091A17E5002200250B4C3AE506
:1010A800002D00D1F6E54B46DA1B9246002F00D101
:1010B8006FE6382A05DC80263604344388460E005D
:1010C800D1E688460E000125DEE6C046FF0700008F
:1010D800FFFF7FFFFE070000002D00D168E64B46AA
:1010E800D91B002F01D18A46A7E50127382900DD41
:1010F800C7E5802212041443AFE5C0460B00020086
:1011080070B5164D0C0382B049000020009201937F
:10111800240B490DDE0FA94204DD1148814203DD8D
:10112800104BF01802B070BD8020400320430E4CD5
:10113800641A1F2C08DD0D4B5B1AD8400300584277
:10114800002EEFD11800EDE7094B009A9C460300EA
:1011580061448B40E2401343F1E7C046FE030000C0
:101168001D040000FFFFFF7F33040000130400008C
:10117800EDFBFFFF10B5041E10D000F05DF80E4B1C
:101188001B1A5B055B0D0A280FDC0B222100121AC3
:10119800D14015300A038440120B01E000230022DD
:1011A8001B0513432000190010BD22000B38824094
:1011B80012030024120BF3E71E04000084461000FB
:1011C80062468C461900634600E0C0461FB500F031
:1011D80009F9002801D40021C8421FBD10B500F04C
:1011E80049F84042013010BD10B500F0FBF8002866
:1011F80001DB002010BD012010BDC04610B500F075
:10120800F1F8002801DD002010BD012010BDC04606
:1012180010B500F073F8002801DC002010BD012093
:1012280010BDC04610B500F069F8002801DA0020AA
:1012380010BD012010BDC0461C2101231B0498428B
:1012480001D3000C10391B0A984201D3000A08394F
:101258001B09984201D30009043902A2105C401806
:101268007047C046040302020101010100000000AA
:1012780000000000F0B55746DE464E464546E0B54C
:101288000D000400E80F83460903D80F090B8246B6
:1012980019488C461F0369005E00490D3F0B760D07
:1012A800814218D086420FD00120B1420DD1BC45F1
:1012B8000BD1944209D1D3451CD0002905D16046F1
:1012C8002043431E984100E00120F0BCBB46B246D3
:1012D800A946A046F0BD01208E42F6D161463943A9
:1012E8000F0017432743F0D15B465246981A431E16
:1012F8009841EAE70020E8E7FF070000F0B5574605
:101308004E464546DE46E0B50D000F03390B83B067
:101318000400804601915800E90F314F400D8C467A
:101328006E00190382469146760D090BD80FBE420E
:101338001FD0BA450FD0002E2FD15546019E3443F9
:10134800002D27D10A433AD0002C45D100281AD1C4
:101358000120404217E011433BD1002E02D1019FEA
:101368002743F3D0844509D16346002BF0D060466B
:1013780009E0019F27432CD1B24524D063460220BF
:10138800013B1840013803B0F0BCBB46B246A94641
:10139800A046F0BD002CD9D0E4E75446002CEDD08F
:1013A8008445EBD15645E9DCDEDB019B8B42E5D871
:1013B800DAD1C845E2D80020C845E4D2D4E70020F5
:1013C800002CE0D0DAE7114303D18445D6D10020C0
:1013D800D9E702204042D6E78445E6D0CEE7C046AA
:1013E800FF070000F0B557464E464546DE46E0B5D5
:1013F8000D000F0304008046E80F390B844683B0C4
:101408005800304F400D01911E03690082469146F5
:10141800490D360BD80FB94220D0BA450FD0002954
:101428002BD101990C435146002937D1324338D08A
:10143800002C44D1002819D10120404216E016435F
:1014480013D1002902D1019F2743F3D0844520D02E
:1014580063460220013B1840013807E0019F2743FB
:1014680003D18A45F4D116431FD0022003B0F0BC43
:10147800BB46B246A946A046F0BD5446002CE7D06C
:101488008445E5D15145E3DC03DB019BB342DFD85A
:101498000FD06346002BCFD06046E7E7002CC9D0B9
:1014A800D4E70020002CE1D0D2E78445D0D1002039
:1014B800DCE7C845CCD80020C845D7D2E9E7844541
:1014C800E3D0C5E7FF07000010B50122862100F030
:1014D80053FAC0B210BD73B56B460E00DA1D302149
:1014E800050000F087FA6B46DA7910239A436B46B9
:1014F800DA710123B3431B010400302128001A4389
:1015080000F03AFA2043C0B276BD37B56B46DD1D10
:101518002A000C00302100F06DFA01232A78C0B2AD
:101528001209934323703EBD10B54022872100F075
:1015380023FAC0B210BD10B50022872100F01CFAB2
:10154800C0B210BDF0B585B002ABDE1D0C00310095
:101558000500FFF7DAFF02AB9F1D01903A00312129
:10156800280000F047FA019B0343D8B2002806D1AF
:1015780001223B7831781340994202D1227005B09C
:10158800F0BD2070FBE7000073B500256B46060030
:101598002C00DD712900204B2D315A5D300089B2B5
:1015A80000F0EAF901350443E4B25B2DF2D13000D2
:1015B800FFF7BAFFFA250443E4B2AD006B46DB79C6
:1015C800002B18D03000FFF77FFF05003000FFF731
:1015D800B2FF092205430821300000F0CDF92C4361
:1015E800002205000B21300000F0C6F9E4B20543E3
:1015F8002C43E0B276BD6B46013D3000D91DADB23B
:10160800FFF7A0FF002D05D00121300000F02CFAD3
:10161800C4B2D3E7FF20EDE7C847000837B56B46EB
:101628009D1D2A000C005E2100F0FEF9D7212B88B1
:101638003222C0B249008B4215D016D81E3A512B1F
:1016480011D008D8053A1D2B0DD005321E2B0AD013
:101658000022012007E03222AD2B04D0113AD62B0C
:1016680001D0602BF4D122803EBD0D49C8228B42A7
:10167800F9D00BD80B498B42F5D00B49643A8B4211
:10168800F1D01639FF398B42EDD0E1E7074A934292
:1016980003D0FA2206495200F5E7FA225200E2E79F
:1016A800E1030000D9020000E10200008F040000FD
:1016B8009105000037B56B46DD1D0C002A004B2153
:1016C80000F098F92B78C0B2142B02D1133B238079
:1016D8003EBD0A2BFCD1083BF9E70000F7B56B4685
:1016E8009F1D0D0039000400FFF7E4FF3B8806004A
:1016F800002B0BD0012B45D1322D2CD008D8142D1E
:1017080022D0D622212D20D00F2D11D0012619E06C
:10171800C82D29D0FA22520095422CD0642DF5D13B
:10172800334A5E21200000F039F9E222920005E0F8
:101738001D225E21200000F031F9272261212000BE
:1017480000F02CF93000FEBD51225E21200000F08F
:1017580025F96E22F2E7D7225E215200200000F020
:101768001DF9F4225200E9E7224A5E21200000F028
:1017780015F9214AE2E7214A5E21200000F00EF91E
:101788001F4ADBE7642D23D00CD8212D17D0322D2A
:1017980017D0142DBAD11E225E21200000F0FEF8C9
:1017A8002222CBE7C82D1BD0FA235B009D42ADD186
:1017B800144A5E21200000F0F1F8134ABEE76022C7
:1017C800C3E7AD225E21200000F0E8F8C622B5E7A5
:1017D800E6225E215200200000F0E0F8F522C1E781
:1017E8000A4A5E21200000F0D9F8BE229EE7C046D2
:1017F800E1020000E10300009604000091050000EA
:10180800C10500008F040000A4040000D9020000F4
:1018180073B56B469D1D0E0029000400FFF7FEFE00
:1018280003000120002B03D1864202D0022E26D0CD
:1018380076BD14224B21200000F09EF8072260217B
:10184800200000F099F805226321200000F094F8A8
:1018580038226921200000F08FF8164A78212000EC
:1018680000F09CF8144A7A21200000F097F8C0B2E2
:101878000028DDD120002988FFF730FFD8E70A22A9
:101888004B21200000F078F80F226021200000F0A2
:1018980073F80D226321200000F06EF8B822692148
:1018A800200000F069F8054A7821200000F076F859
:1018B800034AD8E705070000060600000D0F0000E0
:1018C8000E0E000073B56B460D009A1DDE21060052
:1018D80000F0AAF86B46DB8804009B05980D6B4660
:1018E800D8806843FFF746FC064B074AFEF7A2FD7F
:1018F800FEF782FD6C210200300000F063F8E0B2D0
:1019080076BDC0463333F13F3333333313B5002349
:101918006A460C00D371E521073200F06BF86B467C
:10192800DB79C0B2237016BD37B56B469D1D0C0020
:101938002A00962100F078F82B88C0B223803EBD9B
:1019480013B5040093B20A32009203480A0021003A
:1019580001F018FA16BDC0461803002013B50C0094
:10196800012193B20A32014300920248220001F099
:10197800A9FA16BD180300200B00074910B51C0A68
:101988008A7003220C704B70FFF7DAFF002801D031
:101998000D20404210BDC0462C0000200B00084915
:1019A80010B51C0A4B70CA70130A04220C708B7095
:1019B800FFF7C6FF002801D00D20404210BDC046E9
:1019C8002C0000200B000A4910B51C0A4B70130E9E
:1019D8008B70130CCB704A71130A06220C700B71B2
:1019E800FFF7AEFF002801D00D20404210BDC046D1
:1019F8002C0000200B000B4970B515001A0A0A705C
:101A0800022204004B70FFF79BFF002802D00D2034
:101A1800404270BD012229002000FFF79FFF0028E7
:101A2800F7D0F4E72C00002070B50E4D0B0A140017
:101A380069700222290006002B70FFF781FF002839
:101A480002D00D20404270BD022229003000FFF76D
:101A580085FF0028F5D16B782A781B0213435BBAFF
:101A68002380F0E72C00002010B5080000F090FE5D
:101A7800002010BDFA2070B5C00000F089FE14499E
:101A8800144D0B782878144C002B1BD0FFF77CFDE5
:101A9800022120702878FFF7BBFE64212070287887
:101AA800FFF71CFE642120702878FFF70BFF002148
:101AB80020702878FFF70FFD20702878FFF734FD95
:101AC800207070BDFFF722FF20700220D5E7C046C6
:101AD80034010020000000202C010020F8B5134933
:101AE800134F0E783878134C134D002E09D000236D
:101AF8002B80124D0B702900FFF716FF20702888E5
:101B0800F8BDFFF71FFDFA222B88207001339BB226
:101B18002B809200934202D3FF232E802370012151
:101B28003878FFF7A1FF2070D9E7C04630010020C0
:101B3800000000202C0100202E010020320100208E
:101B48000B885840C0B20201D2B250401A0A0309A9
:101B5800534002025340C00043400B80704770B5A9
:101B68000C000500CA780231063202F013FEE37851
:101B78000633ED1823782B7063786B70E0780830A3
:101B880070BD0000F0B585B01D000AAB1B788271EE
:101B98000193FE231B4A8370C57041719379070036
:101BA800037101339371012304005B4202AAD380BD
:101BB800C61C083702AB3078991D0136FFF7C0FF05
:101BC800BE42F7D102ABDB882E0023701B0A63707C
:101BD800230008331F000093013E38782100B6B275
:101BE800FFF7AEFF0137002EF6D121000198FFF76D
:101BF800A7FF2378009A5355E378D31862785A7070
:101C080005B0F0BD36010020F0B5214C1E00A544FA
:101C180015000C00039000F0B5FD1E4B00221B7848
:101C2800202102931C4B06921F78FA239B00434302
:101C3800049300230792194A644208926D4202AA4B
:101C480005939483D58352181370212202AB9B18F5
:101C58001E701A2604A9320048A802F09BFD6425CC
:101C6800AF2346AC3A0020000299E5710093330097
:101C7800FFF788FF210004A8FFF771FF2B0002007F
:101C880004A9039802F057FC8B239B009D44F0BDE8
:101C9800D4FDFFFF0200002001000020000080BFEB
:101CA800F0B51C4C0D00A544039000F06BFD1A4BD9
:101CB80004901E78194B0A211F78194B28000593A8
:101CC800FEF724FA02AB188280230E2402AA5B00D6
:101CD8005382E83BFF3B938204A9220048A802F004
:101CE80059FD842346ADEB712F3B3A0031002800A3
:101CF80000932300FFF746FF290004A8FFF72FFFF2
:101D08006423020004A9039802F015FC8B239B00AE
:101D18009D44F0BDD4FDFFFF02000020010000201B
:101D280005006801F0B5174B174C1B78A5440393C1
:101D3800164B00261B7809270493154B06AC07930E
:101D480003233A002100059006964AA8237202F060
:101D580021FD322348AD049A28000399EE710093BF
:101D68003B00FFF70FFF29002000FFF7F8FE642370
:101D780002002100059802F0DEFB8D239B009D44A4
:101D8800F0BDC04602000020CCFDFFFF010000208E
:101D9800120800047FB500226B46A026DD1DDA7309
:101DA8007F23F605184028701021300000F004FE4B
:101DB8000D4C290001226423200001F049FE0B4B41
:101DC800187800F0E5FC0F21642369440122200003
:101DD80002F00AF830000122102100F0EDFD6B46F8
:101DE800D87B04B070BDC046700100206C01002093
:101DF800F7B56B46DF1D9E1D9971A0258023ED0563
:101E08005B4203430022280010213B7000F0D4FD00
:101E18000A4C390064230122200001F019FE6423D2
:101E280031000122200001F013FE280001221021B8
:101E380000F0C2FD012000F0ABFCF7BD70010020EE
:101E480070B500217F20FFF7D3FF01215520FFF750
:101E5800CFFF07215020FFF7CBFF0E217F20FFF790
:101E6800C7FF10214320FFF7C3FF03244720FFF7D4
:101E780091FF082800D070E15F30FFF78BFF031E49
:101E880000D075E102214820FFF7B2FF00217F2032
:101E9800FFF7AEFF7B215120FFF7AAFF002150205A
:101EA800FFF7A6FF00215520FFF7A2FF7F200E2194
:101EB800FFF79EFF7320FFF76DFF002830D17030C9
:101EC800FFF768FF040071202600FFF763FF0B3659
:101ED8000300F6B21C2C01D80E34E6B22D20642182
:101EE8005843FEF79DF9002105007F20FFF780FF8A
:101EF800AD216120FFF77CFF70215120FFF778FFAB
:101F08000E217F20FFF774FF311C3F2E00D93F219F
:101F18007020C9B2FFF76CFF7120E9B2FFF768FFC4
:101F280000217F20FFF764FFAD216120FFF760FFEC
:101F380003217F20FFF75CFF00214020FFF758FFB7
:101F480005217F20FFF754FFB3214120FFF750FF01
:101F5800F1214320FFF74CFF14214520FFF748FFEC
:101F680032215B20FFF744FF34215F20FFF740FF59
:101F780008217B20FFF73CFF06217F20FFF738FF71
:101F88001B214420FFF734FFBF214020FFF730FF1B
:101F98003F214E20FFF72CFF08217F20FFF728FF65
:101FA80020216520FFF724FF18216A20FFF720FF72
:101FB80009217F20FFF71CFFAF214F20FFF718FFF3
:101FC80040215F20FFF714FF80214820FFF710FF12
:101FD80080214920FFF70CFF77215720FFF708FFE2
:101FE80078216020FFF704FF78216120FFF700FFC8
:101FF80008216220FFF7FCFE50216320FFF7F8FE5E
:102008000A217F20FFF7F4FE11214D20FFF7F0FE93
:1020180080215520FFF7ECFE1F217420FFF7E8FE12
:102028001F217520FFF7E4FE78214A20FFF7E0FE24
:1020380078214B20FFF7DCFE08214420FFF7D8FE6B
:1020480050214520FFF7D4FEFF216420FFF7D0FE82
:102058001F216520FFF7CCFE14217F20FFF7C8FE63
:1020680065210800FFF7C4FE08216620FFF7C0FEBF
:1020780070216320FFF7BCFE48210800FFF7B8FE77
:1020880007217F20FFF7B4FE0D214120FFF7B0FEA6
:1020980014214320FFF7ACFE0E214B20FFF7A8FECA
:1020A8000F214520FFF7A4FE42214420FFF7A0FEA0
:1020B80080214C20FFF79CFE10217F20FFF798FE1F
:1020C80002215B20FFF794FE07217F20FFF790FE97
:1020D80041214020FFF78CFE00217020FFF788FE89
:1020E8000A2000F055FB44213220FFF781FE07212A
:1020F8007F20FFF77DFE40210800FFF779FE0621CB
:102108007F20FFF775FEF0216220FFF771FE0021A6
:102118006320FFF76DFE0D217F20FFF769FEC021C8
:102128004820FFF765FED5216F20FFF761FE0021EB
:102138007F20FFF75DFEA0215B20FFF759FEA82155
:102148004E20FFF755FE50215A20FFF751FE402040
:102158008021FFF74DFE002070BD013C002C0DD002
:1021680010214320FFF744FE012000F011FB7DE61B
:102178000220802BF0D10421463085E60320EBE7CE
:1021880084B010B502900391049202A964220593C9
:1021980018481BAB1C7802F0FDFA174B00201C7086
:1021A800FFF7F8FD282000F0F3FA5A213A20FFF74C
:1021B8001FFE322000F0ECFA0020FFF7EBFD0300D1
:1021C8000120492B12D1FFF7E5FD0220FFF7E2FDC0
:1021D8000320FFF7DFFD0420FFF7DCFD0520FFF7F4
:1021E800D9FD0620FFF7D6FDFFF72AFE10BC08BC74
:1021F80004B01847700100206C010020F0B50700FA
:1022080087B0022000920E001C00FFF7C3FD01906A
:102218000320FFF7BFFD02900420FFF7BBFD0390EA
:102228000520FFF7B7FD04900620FFF7B3FD0590E2
:102238000720FFF7AFFD05000C20FFF7ABFD174A9D
:10224800002D13D0002101980B00000609D5039B2F
:1022580002991B020B4319B2059B04981B02034306
:102268001BB211800E490B800E4B1D70FA21002302
:10227800D05E89006043FDF7D3FFFA21084B386030
:102288000020185E89006043FDF7CAFF054B009ADD
:102298001B783060137007B0F0BDC0466A0100209B
:1022A8006801002066010020034B10B5834202D16B
:1022B8000248FFF737FD10BD68020020D401002056
:1022C80010B592B03422002105A802F037FA002197
:1022D800102201A802F032FA8020800000F0CAFE25
:1022E80080235B000893002309930E9308330F9310
:1022F80080239B0210938023022440229B0505A87B
:1023080005940A920C940D94119300F0DFFE011EBF
:1023180001D072B6FEE707230193902304901B01B6
:1023280001A80294039301F031F9002801D072B694
:10233800FEE712B010BD0000F0B501249FB000F018
:1023480001FAFFF7BDFF1422002119A802F0F6F9DF
:10235800A0205D4B10215A6BC00522435A635B6B6A
:10236800220023401893189B00F026FBA02000258C
:102378001026C00519A91A9419961B951C9500F0EA
:1023880069FA524C524B2000236082235B00636041
:10239800E023DB00E36080239B00A361FA3BFF3B63
:1023A800E3620133A56025616561E66125626562C6
:1023B800A5622563636301F0D3FAA84201D072B61F
:1023C800FEE7444D444BA8602B60E1235B026B6041
:1023D8000C23E8602861A861E86128626862A86245
:1023E80028006B6102F076F9002801D072B6FEE78A
:1023F8003A4F3B4BB8603B603A4B38617B603A4B95
:10240800B8613800FB6001F0D1FE002801D072B637
:10241800FEE7364E364BB0603360364B3061736042
:1024280001237061B061F06130623000F36000F048
:102438004BFC011E01D072B6FEE7300000F0D0FD63
:10244800011E01D072B6FEE7300000F0EFFD061E57
:1024580001D072B6FEE721000123542210316846EC
:10246800159302F097F90FCCFFF78AFE380001F0B8
:102478007BFDFFF7FFFA00F085F90400831B132B9F
:10248800F9D95B276A460023D21913703A0019A9B3
:102498006A441793199317A8174BFFF7AFFEFFF776
:1024A8001DFB060001002800FFF7FAFB6B46199A8E
:1024B8001799DB191B782800009652424942FFF70A
:1024C800A3FB2600D7E7C04600100240B402002054
:1024D80000300140D4010020004400406802002080
:1024E800002000403F0600000F27000018030020CE
:1024F80000580040583D5000B80B000001210A4B1D
:1025080082B01A6C0A431A641A6C0A40802100923D
:10251800009ADA6B49050A43DA63DB6B0B400193D7
:10252800019B02B07047C0460010024010B504007D
:1025380088B01422002103A802F000F9114B226888
:102548009A421DD10122104CA020636B03A91343AA
:102558006363636BC00513400193019BC0235B0158
:102568000393122304930C3B079300F073F9802222
:10257800E36BD2031343E363E36B13400293029BC1
:1025880008B010BD005800400010024010B504000B
:1025980088B01422002103A802F0D0F8104B22685A
:1025A8009A421AD180210F4B49011A6CA0200A4384
:1025B8001A641A6CC0050A4001210192019A5A6BEB
:1025C8000A435A635B6B0B400293029BC22303A925
:1025D8000393C03B049300F03DF908B010BDC0461A
:1025E800003001400010024007B50B4B02689A42C8
:1025F80011D18021094B09021A6C13200A431A646D
:1026080000221B6C0B4001931100019B00F0D2F8D3
:10261800132000F0F9F807BD002000400010024028
:1026280010B5040088B01422002103A802F086F82F
:10263800104B22689A421BD180210F4B8902DA6B1A
:10264800A0200A43DA63DA6BC0050A400192019AB6
:102658000122596B114359635B6B03A91340029321
:10266800029B0C2303930A3B0493079200F0F2F8B1
:1026780008B010BD0044004000100240FEE7FEE72D
:102688007047704710B500F071F810BD10B50248DA
:1026980001F09AFC10BDC046680200207047000097
:1026A8000D488546FFF7FAFF0C480D490D4A0023EF
:1026B80002E0D458C4500433C4188C42F9D30A4AEF
:1026C8000A4C002301E013600432A242FBD302F05B
:1026D8003DF8FFF731FEFEE7002000200000002053
:1026E80010000020A84800081000002070030020F7
:1026F800FEE7000070B5104B05001978002901D1DC
:10270800012070BDFA208000FDF700FD0B4C010090
:102718002068FDF7FBFC00F083F8041EF0D1032DC0
:10272800EED8020001202900404200F043F8044B93
:1027380020001D60E5E7C0460800002004000020D6
:102748000C0000208023084A5B00116810B50B4379
:1027580003201360FFF7CEFF041E03D1FFF7CEFE60
:10276800200010BD0124FBE700200240034A044B6F
:1027780011681B785B1813607047C0466C03002013
:1027880008000020014B18687047C0466C03002001
:1027980070B50400FFF7F6FF0500631C02D0044B78
:1027A8001B78E418FFF7EEFF401BA042FAD370BD78
:1027B8000800002010B5FF2403220B00210002406E
:1027C800D20091409B012340C943934000280ADB73
:1027D800C0240B4A800880008018A40002590A40CF
:1027E8001343035110BD0F2210400838054A8008D2
:1027F80080008018C26911401943C161F2E7C046E0
:1028080000E100E000ED00E0002805DB1F23184090
:102818001E3B8340014A13607047C04600E100E058
:102828008022431E5204012093420DD2C021074A40
:1028380007485360036A09061B021B0A0B4303621D
:1028480000200723906013607047C04610E000E046
:1028580000ED00E00023F0B585B00A681400DC4004
:1028680001D105B0F0BD012514009D402C40009415
:102878002A4200D191E04A685F00944603226446E8
:1028880022400324BC40E4430194541E012C2ED85A
:102898008668019C2640CC68BC4034438460446808
:1028A8000126AC4325006446240934409C402C434F
:1028B8004460C568019C25408C68BC402C43C460BA
:1028C800022A16D107250F261D40AD00AE40DC08B0
:1028D800A40004190294246A03962600039CA643C4
:1028E80034000E69AE402643029C266201E0032AAA
:1028F800DFD1BA400468019D25402A43C024026004
:102908006246A402224248D0254A03259C08A40016
:10291800A4180F221D40ED00AA40A027266EFF052F
:1029280096430022B8420CD01E4F0132B84208D05C
:102938001D4F0132B84204D01C4F0332B84200D1B7
:10294800023AAA40674632432266154C009A266826
:10295800009DD2433543FF0201D435001540674638
:1029680025606668009D3543BF0201D435001540D7
:10297800674665600E4C009DE66F3543BF0301D482
:10298800350015406746E5670A4C009EE56F2E4303
:10299800FF0301D415402E00E66701335DE7C0460A
:1029A800001802400004005000080050000C0050BD
:1029B8000818024004180240002A01D081617047BB
:1029C8008162FCE703689A69920701D500229A623E
:1029D80001229969114202D199690A439A617047A3
:1029E80030B5039C00682343120489051A43890DF6
:1029F800054B45680A43640D234352009D43520822
:102A08002A43426030BDC046FF63FF03F7B5150097
:102A180002680E00916910230F0004001F40002077
:102A280019420DD00700D3610190236820219A69CB
:102A38000A425FD1002F31D004270120019B1F4398
:102A4800802225685200AB69134202D00120EA6156
:102A580007438022D200134203D0082101200F43EC
:102A6800EA6180229200134249D00223EA611F439F
:102A78002000FFF7A7FF6B68224A012013406B6014
:102A8800636C20223B436364230041331A702200A5
:102A98000023423240341370237032E0721CC5D0D8
:102AA800FFF770FE401BB04201D8002EBDD12200B6
:102AB80023684232586811789A69C9B212040BD552
:102AC8008022D201104207D1202905D059680A4333
:102AD8005A60FFF757FE0500202223689B691342BE
:102AE800A3D1FFF74FFE401B1928F5D92023012752
:102AF80001939AE7002F9FD12022DA619CE70028F2
:102B0800B6D1FEBD00E800FEF8B504000D001600C1
:102B1800022723689B693B4201D0002021E0320054
:102B280029002000FFF772FF002819D16B1CF0D094
:102B3800FFF728FE801BA84201D8002DE9D12368A1
:102B4800996902230A001A401942E2D12021636CD4
:102B58000B43636423004034413319705A70227068
:102B68000120F8BDF8B504000D0017001E00236809
:102B78009B692B405B1B5A425341BB4201D000204A
:102B880026E031002000069AFFF740FF00281ED1FA
:102B9800731CECD0FFF7F6FD069BC01AB04201D8B3
:102BA800002EE4D123689B692B405B1B5A4253419A
:102BB800BB42DCD12022636C13436364230041339E
:102BC8001A7022000023423240341370237001200F
:102BD800F8BDF8B504000E001700202523689B698E
:102BE8002B4201D000201DE03A0031002000FFF701
:102BF8000DFF002815D1FFF7C5FDC01BB04201D855
:102C0800002EEBD123689B691A002A402B42E5D19C
:102C1800636C2B4363642300403441331D705A7046
:102C280022700120F8BD0000F7B505000024042734
:102C38002026009101922B689B693B4201D1002C10
:102C480001D02000FEBD019A28000099FFF7DEFEA2
:102C58002B6804009A6932420FD1631E9C41E4B28A
:102C6800FFF790FD019BC01A009B984201D8002BEA
:102C7800E1D1002C19D00124DDE7002811D19A698F
:102C88001022996911420ED0DA616F64DE615A68C8
:102C98000C490A405A602B0041331E705870013BA2
:102CA80018700124DCE76864DAE72B689B693B420B
:102CB800C1D16B6C33436B642B0041331E70013BF5
:102CC8001C70D8E700E800FE70B504000120002C55
:102CD8004ED0250041352B78DAB2002B05D12300E0
:102CE800403320001A70FFF721FC242301212B70A8
:102CF8002368E0681A68A6688A431A601D496268F2
:102D08000A401A619A681C490A409A60012807D14A
:102D18008022120232439A605A681848024009E039
:102D28008422120232439A600228F5D18022586820
:102D3800120102435A605868114A02435A60DA681D
:102D480000200A40DA60616922690A43A169090220
:102D58000A43DA60216AE2690A431A6001221968A3
:102D68000A431A60202360642B7020634234207069
:102D780070BDC046FFFFFFF0FF7FFFFFFFF7FFFFBB
:102D880000800002F0B5060085B002920393413638
:102D9800337804000F000220202B14D12300403385
:102DA8001A78012A0FD001221A70FFF7EBFC802154
:102DB800050000901923012220000902FFF7D2FE26
:102DC800002802D0012005B0F0BD21233370230074
:102DD800102242331A70029B60646362039B606333
:102DE8006385638DFF2B34D88023628D9B0492B258
:102DF80032492285002A0FD0029E20683678013A8F
:102E08008662029892B201306062608D2285013834
:102E180080B201326085D2B2009139002000FFF7FC
:102E2800DFFD638D2A0020000A99002B15D1FFF7DA
:102E3800D0FE0028C6D120212368214DD9615A68C7
:102E48002A405A602300403441331970587020706A
:102E5800B9E78023FF225B04CAE7FFF755FE002885
:102E6800B0D1636A22681978013391626362638D15
:102E7800228D013B9BB26385013A638D92B2228514
:102E8800002BCED0002ACCD1802120000A9B0095AF
:102E9800FFF768FE002800D094E7638DFF2B05D963
:102EA800FF22802322855B040090B6E78023628D91
:102EB8009B0492B22285D2B20090AEE70020008037
:102EC80000E800FEF0B5060085B002920393413693
:102ED800337804000F000220202B14D12300403344
:102EE8001A78012A0FD001221A70FFF74BFC8021B3
:102EF800050000901923012220000902FFF732FE85
:102F0800002802D0012005B0F0BD2223337026002E
:102F1800123B42363370029B60646362039B6063BA
:102F28006385628D2C4BFF2A20D9FF2222850093CE
:102F380080235B0439002000FFF752FD638D2A00CF
:102F480020000A99002B19D1FFF743FE0028D9D198
:102F580020212368214DD9615A682A405A602300EC
:102F680040344133197030702070CCE7628D92B2D2
:102F78002285D2B2009380239B04DBE7FFF754FE3F
:102F88000028BFD123685A6A636A1A70636A228D5F
:102F980001336362638D013A013B9BB26385638DA4
:102FA80092B22285002BC9D0002AC7D180212000E7
:102FB8000A9B0095FFF7D6FD0028A3D1638DFF2B50
:102FC80003D9FF2222850090B2E7628D92B2228552
:102FD800D2B20090CFE7C0460024008000E800FE8F
:102FE800F0B504004134227803000F000220D6B265
:102FF800202A18D11D0040352A78012A13D024220E
:1030080022701B68233A19680748914319601968A8
:1030180001400020196019683943196019680A438A
:103028001A6026702870F0BDFFEFFFFF0200F0B5B0
:10303800413214780300E5B20220202C17D11C007D
:1030480040342678012E12D0223010701B682338A5
:103058001E68074F86431E601E6809023E403143C2
:103068001960196808431860002015702070F0BDB9
:10307800FFF0FFFF10B5114C1149236802000B4007
:1030880003432360802300209B009A420ED10D4BFE
:103098000D49186806235843FDF738F88022431C69
:1030A800D200616908001040114200D110BD002B08
:1030B80001D0013BF5E70320F8E7C0460070004067
:1030C800FFF9FFFF0400002040420F00F0B50400A4
:1030D80085B0002802D1012005B0F0BD0368DB07E8
:1030E80010D423689B075CD423681B0700D5C1E074
:1030F80023685B0700D5F2E0E369002B00D079E193
:103108000020E9E73822AF4DAB681340EA68102B7E
:1031180009D1D3439B0708D12B689B03E1D563688A
:10312800002BDED1D7E7082BF6D080226368520245
:10313800934211D12A6813432B60FFF723FB8027A2
:103148000600BF022B683B42CBD1FFF71BFB801B5D
:103158006428F7D90320BFE7A021C9028B4208D110
:1031680080232968DB020B432B602B681A432A60F3
:10317800E3E72A6894490A402A602A6893490A4082
:103188002A60002BD9D1FFF7FDFA80270600BF027D
:103198002B683B42A5D0FFF7F5FA801B6428F7D9C6
:1031A800D8E73822874DAB681340EA68102B28D13E
:1031B80003210A40022A26D12A68520503D5E2686B
:1031C800002A00D187E769686269814812020140D4
:1031D8000A436A60002B0CD12B687E4A7E49134053
:1031E800226913432B602B687C4A9B045B0FDA40EF
:1031F8000A607B4B1868FFF77DFA002800D173E757
:1032080069E7002BD8D0E368002B20D02B68714ADF
:10321800802713402269FF0013432B6080232A680C
:103228005B0013432B60FFF7ADFA06002B683B42A7
:1032380007D06A68636966491B020A4013436B60DA
:1032480052E7FFF79FFA801B0228EFD982E72B6825
:10325800644A802713402B60FFF794FA0600FF00AA
:103268002B683B4200D13FE7FFF78CFA801B02280E
:10327800F6D96FE73822534DAB681340182B08D1A5
:103288002B6E9B0700D433E7A369002B00D02FE7F0
:1032980021E7A2690123002A10D02A6E02271343CE
:1032A8002B66FFF76FFA06002B6E3B4200D01FE734
:1032B800FFF768FA801B0228F6D94BE72A6E022727
:1032C8009A432A66FFF75EFA06002B6E3B4200D14E
:1032D8000EE7FFF757FA801B0228F6D93AE738229B
:1032E800384DAB681340202B08D1EB6D9B0700D4F9
:1032F80002E7A368002B00D0FEE6ECE6802200215E
:10330800EB6B52050091134208D1EB6B1343EB634F
:10331800EB6B13400393039B012300938027324EEA
:103328007F0033683B4215D0A368012B22D1EA6D98
:103338001343EB65FFF726FA02270600EB6D3B42C5
:1033480038D0009B012B00D0D6E6EB6B274A134000
:10335800EB63D1E633683B433360FFF713FA019020
:1033680033683B42E0D1FFF70DFA019BC01A0228EF
:10337800F6D9EFE6EA6D052B05D1013B1343EB6562
:10338800EA6D0123D4E701218A43EA65EA6D033136
:103398008A43EA65002BCDD1FFF7F4F9022706002E
:1033A800EB6D3B42CDD0FFF7EDF9114B801B9842F6
:1033B800F6D9CFE6FFF7E6F90D4B801B9842BDD949
:1033C800C8E6C04600100240FFFFFEFFFFFFFBFFFC
:1033D800FF80FFFFFFC7FFFF040000200024F40068
:1033E8000C000020FFFEFFFF00700040FFFFFFEF12
:1033F8008813000038213F4DAA680A40102A51D08E
:103408003D4A022B38D12B68802713402B60FFF7E9
:10341800B9F90600BF042B683B4227D1616A236AC9
:10342800EA680B43354980260A401343E26AB6042A
:103438001343226B1343A26A12021343EB608023E7
:103448002A685B0413432B608023EA685B051343F7
:10345800EB60FFF797F904002B68334200D04FE682
:10346800FFF790F9001B0228F6D973E6FFF78AF9EF
:10347800801B0228CFD96DE62B68802613402B606D
:10348800FFF780F90400B6042B68334204D1EB68D7
:103498001B4A1340EB6033E6FFF774F9001B022860
:1034A800F2D957E6012B00D115E60322E868216A14
:1034B80002408A4200D00EE67022616A02408A42C7
:1034C80000D008E6FE21A26AC90101401202914219
:1034D80000D000E6F822E16A920302408A4200D056
:1034E800F9E5236B400F4007C01A431E9841C0B24C
:1034F800F2E5C04600100240FFFFFFFE8C80C11FAE
:10350800FCFFFEEF382370B51D4CA2681A4205D1A6
:1035180023681C489B045B0FD84070BDA2681A4002
:10352800082A27D0A2681A40102A17D1E368E16850
:10353800DB43E5684906490F6F322D0A0131154012
:103548009B0709D11048FCF7E1FDE1686843490F82
:103558000131FCF7DBFDE0E70A48F4E7A2681A400E
:10356800202A09D0A26800201340182BD5D1FA20B0
:10357800C001D2E70448D0E780200002CDE7C0466A
:10358800001002400024F40000127A00F7B504008D
:103598000D00002801D10120FEBD07274A4E3368DF
:1035A8003B408B422AD3226893073BD4D20748D4A6
:1035B800072733683B40AB420AD93368BB432B43E8
:1035C8003360FFF7DFF8019033683B40AB426BD1C3
:1035D80023683E4D5B076FD4FFF794FFAB683C4907
:1035E8001B051B0F9B005B581F210B40D840394A15
:1035F800394B10601868FFF77DF8CDE73368BB4397
:103608000B433360FFF7BEF8019033683B40AB4291
:10361800C9D0FFF7B7F8019BC01A304B9842F4D9CC
:103628000320B9E72949530704D5E0238868DB015B
:1036380003438B608B682A480340A06803438B6070
:10364800B4E76268214F012A19D13B689B03A2D5D0
:103658000721BB688B431343BB60FFF793F80190C6
:103668003823BA681A406368DB009A42A0D0FFF793
:1036780089F8019BC01A194B9842F1D9D0E7022A60
:1036880003D13B689B01E3D485E7002A03D13B685B
:103698005B05DDD47FE70223032A03D1396E194283
:1036A800D6D178E7F96DFAE7FFF76CF8019BC01AF5
:1036B8000A4B984288D9B3E7AB680A4A1340E268D4
:1036C8001343AB6088E7C046002002400010024068
:1036D80044480008040000200C0000208813000063
:1036E800FFF0FFFFFF8FFFFF064B07499B68074A64
:1036F8005B045B0F9B005B581F2110680B40D84090
:103708007047C0460010024024480008040000200A
:10371800F0B50E0085B015000400FFF733F8AD19B9
:103728002D1AFFF72FF88027254B01901B685B01A6
:103738001B0D6B43039322689368180038403B4283
:1037480032D0731CF8D0FFF71DF8019BC01AA842AD
:103758002CD3E02123685A688A435A608222616820
:10376800520091420CD18021A26809028A4203D0FA
:103778008021C9008A4203D140211A688A431A600D
:103788008021A26A89018A4206D119680D48014040
:10379800196019680A431A60230001225D331A7000
:1037A800002303205C34237005B0F0BD039B002B7D
:1037B80000D02B00039A1D00013A0392BBE7C046D4
:1037C80004000020FFDFFFFFF0B51700002285B0DE
:1037D8001D0002ABDA7004000E00FEF7D3FFED19EE
:1037E8002D1AFEF7CFFF23222368009001932A4B5E
:1037F8001B6853431B0D6B43039302AB2168DA1C10
:103808008B681800304033423BD0C023DB009E4217
:1038180004D1019B1B7BDBB2137013787B1CEFD0A8
:10382800FEF7B0FF009BC01AA8422CD3E021236802
:103838005A688A435A6082226168520091420CD1C8
:103848008021A26809028A4203D08021C9008A42E5
:1038580003D140211A688A431A608021A26A89012B
:103868008A4206D119680D480140196019680A434F
:103878001A60230001225D331A70002303205C3490
:10388800237005B0F0BD039B002B00D02B00039ADA
:103898001D00013A0392B0E704000020FFDFFFFF9C
:1038A800F8B582231700426804000E005B009A42B4
:1038B8000DD1802283681202934203D08022D20065
:1038C800934204D14021226813688B4313603A0065
:1038D80031002000FFF71CFF051E05D02023226EB3
:1038E80003251343236616E0822362685B009A422D
:1038F80011D18022A3681202934203D08022D20001
:10390800934208D1C0213B0032002000C900FFF7D4
:103918005BFF0028E2D12800F8BD70B513000D0048
:1039280016000A00C02149010400FFF74DFF0028D6
:1039380005D020230320226E1343236670BD320076
:1039480029002000FFF7E4FE0028F2D1C02133004F
:103958002A002000C900FFF737FF0028EED0E8E76B
:10396800F8B504000120002C67D0636A002B65D1EC
:10397800822261685200914200D0E3610023250051
:10398800A3625D352B78DAB2002B05D123005C33B6
:1039980020001A70FEF7FAFD022340222B702168DE
:1039A800E6680B689343E0220B60D200002396423E
:1039B80048D9F02218001201964200D0A362822250
:1039C8008427636852001340A2683F023A400227E6
:1039D80013432269A5693A401343012267691740D6
:1039E8003B438027BF002F403B43E76937321740EE
:1039F8003B43276A4832174080223B43A76A92011B
:103A080017403B43102708220B60636A2D0C3B408C
:103A1800676B17403B43F0273F013E403343042682
:103A280035402B4303434B60CB69084803400020D3
:103A3800CB61012320665D342370F8BD0023236128
:103A480063619BE780204001B6E7C046FFF7FFFFB0
:103A5800F0B585B0009303005C3316001A780400B3
:103A68000D000227012A00D182E001221A70FEF718
:103A780089FE230001905D331A78D7B2012A00D05D
:103A8800A6E0002D71D0002E6FD002321A700023EC
:103A9800A21D23662364A563A687E687023293875F
:103AA800D3878022A1682365E364120223689142C8
:103AB80008D140211A688A431A6080221968D20105
:103AC8000A431A6040221968114202D119680A4350
:103AD8001A60E021E0686268C90088424BD9002A70
:103AE80001D0012E07D12A880235DA60E38FA56359
:103AF800013B9BB2E3870225E38F002B19D12000FD
:103B0800019A0099FFF709FF00285ED1A368002BEE
:103B180006D103932368DA6803929B680393039B97
:103B2800226E002A21D1230001215D33170019706C
:103B38001BE0226893682B4209D0A36B19880233D3
:103B4800D160A363E38F013B9BB2E387D4E7FEF721
:103B580019FE019BC01A009B9842CDD30133CBD0EC
:103B68002300012203275D331A7000235C3423707D
:103B7800380005B0F0BD002A01D0012E08D12A78FE
:103B88001A73A36B0133A363E38F013B9BB2E387F3
:103B98000225E38F002BB2D023689A682A420AD004
:103BA800A26B12781A73A36B0133A363E38F013BF3
:103BB8009BB2E387EDE7FEF7E5FD019BC01A009B8A
:103BC8009842E6D30133E4D0CAE7202323669DE771
:103BD8000227CAE7F7B51E0003005C3317001A78FE
:103BE80004000D000220012A1BD001221A70FEF7E2
:103BF800C9FD230001905D331B786168DAB2012B9F
:103C080009D0822302205B00994207D1A368002BC8
:103C180004D1042A02D1002D04D1012000235C34F0
:103C28002370FEBD002FF8D0002EF6D023005D33A0
:103C38001A78042A01D005221A70220000230832BB
:103C480023662764D687A21DD687E022E068E3644E
:103C58002365A5632368E687A687D200904235D9F5
:103C68005A68604F3A405A6040221F68174202D192
:103C78001F683A431A60E022D200904261D90029B5
:103C880001D0012E07D12A880235DA60E38FA563B7
:103C9800013B9BB2E387012502272E00E38F002B0F
:103CA80019D123000833DB8F002B14D12000019A8F
:103CB8000899FFF732FE002800D08FE0236E002B12
:103CC800ABD1230001225D331A70A7E780225F6819
:103CD80052013A43C7E7206883683B420ED0E38F1E
:103CE800002B0BD0012D08D1A36B1A880233C260B8
:103CF800A363E38F013B9BB2E38700258368190028
:103D0800314033420ED022000832D38F002B09D025
:103D18000D00C068236C188002332364D38F013BE5
:103D28009BB2D387FEF72EFD019BC01A089B9842D1
:103D3800B4D30133B2D0230001225D3303201A70BB
:103D48006CE7002901D0012E08D12A781A73A36BD9
:103D58000133A363E38F013B9BB2E387012502276D
:103D68002E0032E023689A683A420FD0E28F002A88
:103D78000CD0012D09D1A26B12781A73A36B0133F1
:103D8800A363E38F013B9BB2E387002523689A680E
:103D98001100314032420FD022000832D08F002863
:103DA8000AD00D001B7B206C0370236C0133236445
:103DB800D38F013B9BB2D387FEF7E4FC019BC01A6B
:103DC800089B984201D30133B5D1E38F002BC9D1A9
:103DD80023000833DB8F002BC4D167E720230120A1
:103DE80023666BE7FFEFFFFFF0B5060087B004918D
:103DF80003935D36337804001700DDB2012B00D041
:103E0800AAE004334268FF339A420ED18368002B3C
:103E18000BD104333370039B0A0000933B00FFF778
:103E2800D9FE0500280007B0F0BD23005C331A78DE
:103E3800012A00D192E001221A70FEF7A3FC049B2C
:103E48000590002B77D0002F75D004233370002302
:103E5800049A23662264A21DD7870232D787E022FC
:103E6800E168A363A387E387E3642365D20023683B
:103E780091422FD95A683A4802405A608022A06875
:103E88001202904207D140201A6882431A601A68C9
:103E9800344802401A6040221868104202D118685B
:103EA80002431A60E0232700DB000837994225D92E
:103EB800FB8F002B25D0012123689A680A423ED047
:103EC800DA68236C1A8002332364FB8F013B9BB2B0
:103ED800FB87EDE78022586852010243CDE70121B4
:103EE80023689A680A421AD01B7B226C1370236CD1
:103EF8005B182364FB8F013B9BB2FB87FB8F002B76
:103F0800EDD12000059A0399FFF7CAFC002820D1BB
:103F1800236E002B0FD101221D0032700BE0FEF73B
:103F280031FC059BC01A039B9842E7D30133E5D0C7
:103F380001230325337000235C34237072E7FEF7F6
:103F480021FC059BC01A039B9842B1D30133AFD023
:103F5800EEE720232366DBE70225ECE7022561E78D
:103F6800FFEFFFFFFFBFFFFF01000300012010B5B7
:103F78003D310C78E2B2844218D1001808701B68F1
:103F8800D9681143D9600B498B4202D00A498B4248
:103F98000DD19A6809490A40062A06D007398A428B
:103FA80003D0012219680A431A60002010BD19685D
:103FB800F9E7C046002C014000040040070001005A
:103FC80070477047704770470222036870B5DD6814
:103FD8001E69040016420DD015420BD0053A1A612D
:103FE800043202779B699B0700D17CE0FFF7E9FF69
:103FF8000023237704231E4212D01D4210D005222D
:10400800236852421A61073222779A69C0239B00BB
:1040180020001A4200D16CE0FFF7D3FF002323777A
:1040280008231E420FD01D420DD009222368524298
:104038001A610D322277DB6920009B075FD0FFF7FA
:10404800C0FF0023237710231E4211D01D420FD03A
:104058001122236852421A6119322277DA69C02381
:104068009B0020001A4250D0FFF7ABFF00232377B4
:1040780001231E4208D01D4206D002222368524264
:1040880020001A61FEF710F982239B011E4207D017
:104098002B0605D52368204A20001A6100F0B1F8E4
:1040A800F30507D52B0605D523681C4A20001A619D
:1040B80000F0A8F840231E4208D01D4206D0412235
:1040C8002368524220001A61FFF77DFF20231E4219
:1040D80008D01D4206D021222368524220001A61CE
:1040E80000F08EF870BDFFF76BFF2000FFF76AFF46
:1040F8007EE7FFF765FF2000FFF764FF8EE7FFF715
:104108005FFF2000FFF75EFF9BE7FFF759FF2000E6
:10411800FFF758FFAAE7C0467FDFFFFFFFFEFFFF5C
:104128001C4A10B50368904202D01B4CA04208D12B
:104138007024A3434C68234390420BD0164CA042F2
:1041480008D0164CA04205D0154CA04202D0154C00
:10415800A04203D1144C1C40CB6823438024A343C2
:104168004C69234303608B68C3620B688362904287
:1041780005D00B4B984202D00A4B984201D10B69EB
:104188000363012242610369134202D00369934326
:10419800036110BD002C01400004004000200040D5
:1041A8000044014000480140FFFCFFFF70B50400D7
:1041B8000120002C23D025003D352B78DAB2002BC6
:1041C80005D123003C3320001A70FEF70DFA0223B4
:1041D8002B702068211DFFF7A3FF22000123002078
:1041E8004832137047340A3A137053709370D3707F
:1041F800137153719371D371137223702B7070BD47
:10420800704770477047000030B5EFF31084012203
:1042180082F310880168134D0B682B400B6084F300
:104228001088EFF3108182F3108802680E4C9368AF
:104238002340936081F31088C36E012B0AD1EFF3FA
:10424800108183F31088102402681368A343136055
:1042580081F31088030020228C331A600023C36680
:10426800436730BDDFFEFFFFFEFFFFEF70B50400C0
:104278002569A168036829436569C26929431868E3
:10428800494D114328400143196059684748256A38
:104298000140E06801435960A16998682943444D89
:1042A800284001430F209960D96A8143606A01431D
:1042B800D96240498B4215D103213F4B5B6D0B40BE
:1042C800013B022B60D83D49C85C80231B029A42FF
:1042D8002FD1082856D8FBF70FFF5B550E550B5505
:1042E80055550F0036495B18591E8B411801ECE7EC
:1042F800FFF708F94EE0334A616A334B4900100072
:10430800C95AFBF703FF656840006B08C01829000D
:10431800FBF7FCFE02002D4B103A9A4232D80F23CD
:10432800020000079A4393B2400F22680343D36008
:1043380032E0082826D8FBF7DFFE1A2505251F25B9
:10434800252522001F48626A1F4B5200D15AFBF7ED
:10435800DDFE65686B08C0182900FBF7D7FE020070
:104368001A4B103A9A420DD82368D86014E0FFF728
:10437800BBF9002810D0E6E7FFF7C4F8F9E780207A
:104388000002E0E7012008E080231B029A42EED1F8
:10439800FFF7AAF9021EAFD100200D4BA366002338
:1043A8006367A36770BDC046F369FFCFFFCFFFFF08
:1043B800FFF4FF1100380140001002408448000853
:1043C80000BCFFBF0024F40088480008EFFF00008D
:1043D80001000100836A30B51A0706D50168284C28
:1043E8004A682240846B22434A60DA0706D501688E
:1043F800244C4A682240C46A22434A609A0706D578
:104408000168214C4A682240046B22434A605A07DB
:1044180006D501681D4C4A682240446B22434A6015
:10442800DA0606D501681A4C8A682240C46B224312
:104438008A609A0606D50168164C8A682240046C80
:1044480022438A605A0610D50168134D4A68446CA5
:104458002A4022434A6080225203944205D14A6886
:104468000E4C2240846C22434A601B0606D5026823
:104478000B4953680B40C16C0B43536030BDC046B9
:10448800FF7FFFFFFFFFFDFFFFFFFEFFFFFFFBFFBB
:10449800FFEFFFFFFFDFFFFFFFFFEFFFFFFF9FFFC4
:1044A800FFFFF7FFF7B504000D001700009322681F
:1044B800D3692B405B1B59424B41BB4201D00020C2
:1044C80026E0089B0133F3D0FEF75CF9009BC01A85
:1044D800089B98422DD8002B2BD023681A685207C6
:1044E800E5D52A004021403A8A43E0D0DA69082617
:1044F80011003140019132420BD020001E62FFF7BB
:1045080083FE230090331E6000230120843423702F
:10451800FEBD8022D96912011142C8D01A6220005A
:10452800FFF772FE2300202290331A60019B843427
:1045380023700320ECE7F0B51700020087B088323B
:104548000593136804000D000220202B39D101388F
:10455800002936D0002F34D08023A1685B0199420E
:1045680004D12369002B01D105422AD1230000265A
:1045780090331E6021231360FEF704F9230054339F
:104588001F80023303931F808023A26804905B017D
:104598009A4204D12369B34201D12E001D002300A1
:1045A80056331B889AB2002B0DD1059B200000932F
:1045B8004021049BFFF776FF2023883423600028DE
:1045C8000ED107B0F0BD059B00220093802120008A
:1045D800049BFFF767FF002804D02023883423605A
:1045E8000320EEE72268002D0BD133880236DB0565
:1045F800DB0D9362039B039A1B88013B9BB21380DC
:10460800CDE72B7801359362F4E70000030073B51A
:104618000026040090331E60FEF7B4F823680500F6
:104628001B681B071FD58021284B32000093890384
:1046380003002000FFF736FFB04214D0EFF31081DB
:10464800012383F310888020226813688343136052
:1046580081F310882300202288331A600320002366
:104668008434237076BD260023688C361B685B076C
:1046780023D58021154B0022009320002B00C9036D
:10468800FFF710FF002818D0EFF31080012282F303
:10469800108821680E4D0B682B400B6080F3108842
:1046A800EFF3108082F3108821688B6893438B6046
:1046B80080F3108820233360D0E7230020220020D5
:1046C80088331A603260E0662067C8E7FFFFFF01A1
:1046D800DFFEFFFF70B5041E01D1012070BD05008B
:1046E80088352B68002B04D1020084321370FDF743
:1046F80097FF2423012122682B6013688B431360E2
:10470800A36A002B02D02000FFF764FE2000FFF709
:10471800ADFD0128E1D0236807495A6820000A4006
:104728002A215A609A688A439A60012219680A43C2
:104738001A60FFF76BFFD1E7FFB7FFFF030082188E
:10474800934200D1704719700133F9E770B500261C
:104758000C4C0D4D641BA410A64209D1002600F094
:1047680023F80A4C0A4D641BA410A64205D170BD5B
:10477800B300EB5898470136EEE7B300EB5898477B
:104788000136F2E7A0480008A0480008A44800083D
:10479800A0480008002310B59A4200D110BDCC5C97
:1047A800C4540133F8E70000F8B5C046F8BC08BCAB
:1047B8009E467047F8B5C046F8BC08BC9E46704790
:1047C80000000001020002080008100101000000BA
:1047D80000FF000F0000000000200B0000020A216B
:1047E80000000500000000C8000038FF01000800B4
:1047F8000001CC0F01F10D0168008008B80000002D
:10480800000F8900000000000000010F0D0E0E00CF
:104818000002C7FF9B00000001000000000000002C
:10482800000000000000000000000000010000007F
:104838000200000003000000040000000000000067
:104848000000000000000000000000000000000060
:10485800000000000000000000000000010000004F
:104868000200000003000000040000000600000031
:10487800070000000800000009000000040208000A
:10488800010002000400060008000A000C001000E5
:08489800200040008000000137
:0448A000E10000082B
:0448A400B90000084F
:1048A800529E01000024F4000100000004000000F2
:04000005080026A920
:00000001FF
